:100000000C9437000C94A9020C94A9020C94A90238
:100010000C94A9020C94A9020C94A9020C94A902B4
:100020000C94A9020C94A9020C94A9020C94A902A4
:100030000C94A9020C94A9020C94A9020C94A90294
:100040000C94A9020C94A9020C94A9020C94A90284
:100050000C94A9020C94A9020C94A9020C94A90274
:100060000C94A9020C94A90201000115800011242E
:100070001FBECFEFD8E0DEBFCDBFE8E6F0E040E046
:1000800017C0B591A59135912591059107FD0CC03B
:1000900095918591EF01F92FE82F05900D92A21708
:1000A000B307D9F7FE0104C01D92A217B307E1F709
:1000B000ED36F40731F70E9424010C945F00F894A8
:0200C000FFCF70
:0F00C20044494749544520412053454E48410089
:1000D2006FE070E080E090E00E94E90183E00E941E
:1000E200580265E070E080E090E00E94E90183E060
:1000F2000E94580264E670E080E090E00E941302E1
:1001020083E00E94580268E270E080E090E00E9482
:10011200130282E00E94580268E270E080E090E000
:100122000E94130288E20E94BC0168E270E080E053
:1001320090E00E94130281E00E94BC0162E070E044
:1001420080E090E00E94E90186E00E94BC0168E242
:1001520070E080E090E00E9413028CE00E94BC01FB
:0E01620068E270E080E090E00E9413020895D1
:10017000CF93DF93C82FC06860E082E40E945801EB
:1001800060E082E40E94580160E282E40E9458012B
:10019000DC2FD295DF706D2F606282E40E945801DF
:1001A0006D2F82E40E94580160E082E40E945801B1
:1001B00060E282E40E945801CF70C0626C2F82E43A
:1001C0000E9458016C2F6F7D82E40E9458016BE2FF
:1001D00070E080E090E00E941302DF91CF910895DB
:1001E000CF93DF93C82F60E882E40E94580160EA51
:1001F00082E40E945801DC2FD295DF706D2F606A77
:1002000082E40E9458016D2F606882E40E945801C8
:1002100060E882E40E94580160EA82E40E9458018A
:10022000CF70C06A6C2F82E40E9458016C2F6F7DE2
:1002300082E40E9458016BE270E080E090E00E944E
:080240001302DF91CF91089534
:100248000E9493028FE084B980EF85B988B18860F5
:1002580088B96FEF80E40E945801811102C08FEFC6
:1002680085B981E40E948B01811102C08FEA85B9AA
:100278000E94690062EC70E080E00E94370260E052
:1002880082E091E00E946E0286E40E94B800C0E01D
:10029800D0E004C08AE20E94F0002196C430D10563
:0802A800CCF38EEF8AB9FFCF01
:1002B00094EA9093BC009091BC009923E4F790914C
:1002C000B900987F983009F58093BB0084E880934B
:1002D000BC008091BC008823E4F78091B900887F3E
:1002E0008831A9F46093BB0084E88093BC008091BE
:1002F000BC008823E4F78091B900887F883249F4F4
:1003000084E98093BC0081E0089580E0089580E056
:06031000089580E008954D
:1003160094EA9093BC009091BC009923E4F79091E5
:10032600B900987F9830F9F48093BB0084E88093F5
:10033600BC008091BC008823E4F78091B900887FD7
:10034600803499F484E88093BC008091BC008823B3
:10035600E4F78091B900887F883549F484E9809371
:10036600BC0081E0089580E0089580E0089580E073
:020376000895E8
:10037800CF93DF93C82F60E082E40E94580160E2C7
:1003880082E40E945801DC2FD295DF706D2F6062E5
:1003980082E40E9458016D2F82E40E94580160E0B7
:1003A80082E40E94580160E282E40E945801CF7002
:1003B800C0626C2F82E40E9458016C2F6F7D82E42A
:0A03C8000E945801DF91CF910895C3
:1003D2009B01AC01109211011092120110921301B3
:1003E20010921401A8EEB3E00E949E02AB01BC0180
:1003F2000BC00196A11DB11D8093110190931201B2
:10040200A0931301B09314018091110190911201F4
:10041200A0911301B0911401481759076A077B078D
:0404220044F70895FE
:10042600AB01BC011092110110921201109213013E
:10043600109214010BC00196A11DB11D80931101EC
:1004460090931201A0931301B093140180911101AE
:1004560090911201A0911301B09114014817590708
:080466006A077B0744F70895C3
:10046E00CF92DF92EF926B01E82E80E006C0E82F6C
:10047E00F0E0EE5FFE4F90838F5F4E2D9601280FBA
:10048E00311D411DF901949147FD90819111EFCFDE
:10049E00E82FF0E0EE5FFE4F1082EF90DF90CF90EE
:0204AE000895AF
:1004B000CF93C82F60E082E40E94580160E282E49A
:1004C0000E9458016C2F606282E40E9458016C2FD8
:0C04D0006F7D82E40E945801CF910895D6
:1004DC000F931F93CF938C01862F0E94B800C0E01E
:1004EC0003C00E94F000CF5FF801EC0FF11D80817A
:0C04FC008111F7CFCF911F910F9108954F
:10050800A29FB001B39FC001A39F700D811D11244C
:0E051800911DB29F700D811D1124911D08953B
:1005260080E387B982E08093B800E9EBF0E0808150
:060536008260808308953D
:10053C000E948402A59F900DB49F900DA49F800DE6
:06054C00911D1124089529
:040552000C94000005
:00000001FF
