:100000000C9434000C94CD000C94CD000C94CD00D5
:100010000C94CD000C94CD000C94CD000C94CD002C
:100020000C94CD000C94CD000C94CD000C94CD001C
:100030000C94CD000C94CD000C94CD000C94CD000C
:100040000C94CD000C94CD000C94CD000C94CD00FC
:100050000C94CD000C94CD000C94CD000C94CD00EC
:100060000C94CD000C94CD0011241FBECFEFD8E02E
:10007000DEBFCDBF0E94A7000C943E00F894FFCFD6
:1000800094EA9093BC009091BC009923E4F790917E
:10009000B900987F983011F58093BB0084E8809375
:1000A000BC008091BC008823E4F78091B900887F70
:1000B0008034B1F484E88093BC008091BC00882334
:1000C000E4F78091B900887F883561F484E98093F2
:1000D000BC008091BB008BB981E0089580E0089559
:0800E00080E0089580E008951E
:1000E80094EA9093BC009091BC009923E4F7909116
:1000F800B900987F983009F58093BB0084E8809315
:10010800BC008091BC008823E4F78091B900887F07
:100118008831A9F46093BB0084E88093BC00809187
:10012800BC008823E4F78091B900887F883249F4BD
:1001380084E98093BC0081E0089580E0089580E020
:06014800089580E0089517
:10014E000E94C20015B888B1886088B96FEF80E44C
:10015E000E947400811102C08FEF85B981E40E9464
:10016E004000811102C08FEA85B93399FECF81E438
:06017E000E944000FACFD0
:1001840080E387B982E08093B800E9EBF0E08081F6
:06019400826080830895E3
:04019A000C940000C1
:00000001FF
