:100000000C9437000C94AE020C94AE020C94AE0229
:100010000C94AE020C94AE020C94AE020C94AE02A0
:100020000C94AE020C94AE020C94AE020C94AE0290
:100030000C94AE020C94AE020C94AE020C94AE0280
:100040000C94AE020C94AE020C94AE020C94AE0270
:100050000C94AE020C94AE020C94AE020C94AE0260
:100060000C94AE020C94AE02010001138000112426
:100070001FBECFEFD8E0DEBFCDBFE8E6F0E040E046
:1000800017C0B591A59135912591059107FD0CC03B
:1000900095918591EF01F92FE82F05900D92A21708
:1000A000B307D9F7FE0104C01D92A217B307E1F709
:1000B000ED36F40731F70E94B8000C945F00F89415
:0200C000FFCF70
:0F00C20044494749544520412053454E48410089
:1000D2006FE070E080E090E00E94EE0183E00E9419
:1000E2005D0265E070E080E090E00E94EE0183E056
:1000F2000E945D0264E670E080E090E00E941802D7
:1001020083E00E945D0268E270E080E090E00E947D
:10011200180282E00E945D0268E270E080E090E0F6
:100122000E94180288E20E94C10168E270E080E049
:1001320090E00E94180281E00E94C10162E070E03A
:1001420080E090E00E94EE0186E00E94C10168E238
:1001520070E080E090E00E9418028CE00E94C101F1
:0E01620068E270E080E090E00E9418020895CC
:100170000E9498028FE084B980EF85B988B18860C9
:1001800088B96FEF80E40E945D01811102C08FEF9A
:1001900085B981E40E949001811102C08FEA85B97E
:1001A0000E94690062EC70E080E00E943C0260E026
:1001B00080E091E00E94730286E40E94F100C0E0BA
:1001C000D0E004C08AE20E9429012196C430D10502
:1001D000CCF38EEF8AB93399FECF81E40E9490016F
:0201E000FACF54
:1001E200CF93DF93C82FC06860E082E40E945D0174
:1001F20060E082E40E945D0160E282E40E945D01AF
:10020200DC2FD295DF706D2F606282E40E945D0167
:100212006D2F82E40E945D0160E082E40E945D0134
:1002220060E282E40E945D01CF70C0626C2F82E4C2
:100232000E945D016C2F6F7D82E40E945D016BE282
:1002420070E080E090E00E941802DF91CF91089563
:10025200CF93DF93C82F60E882E40E945D0160EAD9
:1002620082E40E945D01DC2FD295DF706D2F606AFF
:1002720082E40E945D016D2F606882E40E945D014C
:1002820060E882E40E945D0160EA82E40E945D010E
:10029200CF70C06A6C2F82E40E945D016C2F6F7D6B
:1002A20082E40E945D016BE270E080E090E00E94D7
:0802B2001802DF91CF910895BD
:1002BA0094EA9093BC009091BC009923E4F7909142
:1002CA00B900987F983009F58093BB0084E8809341
:1002DA00BC008091BC008823E4F78091B900887F34
:1002EA008831A9F46093BB0084E88093BC008091B4
:1002FA00BC008823E4F78091B900887F883249F4EA
:10030A0084E98093BC0081E0089580E0089580E04C
:06031A00089580E0089543
:1003200094EA9093BC009091BC009923E4F79091DB
:10033000B900987F9830F9F48093BB0084E88093EB
:10034000BC008091BC008823E4F78091B900887FCD
:10035000803499F484E88093BC008091BC008823A9
:10036000E4F78091B900887F883549F484E9809367
:10037000BC0081E0089580E0089580E0089580E069
:020380000895DE
:10038200CF93DF93C82F60E082E40E945D0160E2B8
:1003920082E40E945D01DC2FD295DF706D2F6062D6
:1003A20082E40E945D016D2F82E40E945D0160E0A3
:1003B20082E40E945D0160E282E40E945D01CF70EE
:1003C200C0626C2F82E40E945D016C2F6F7D82E41B
:0A03D2000E945D01DF91CF910895B4
:1003DC009B01AC0110920F011092100110921101AF
:1003EC0010921201A8EEB3E00E94A302AB01BC0173
:1003FC000BC00196A11DB11D80930F0190931001AC
:10040C00A0931101B093120180910F0190911001F2
:10041C00A0911101B0911201481759076A077B0787
:04042C0044F70895F4
:10043000AB01BC0110920F0110921001109211013A
:10044000109212010BC00196A11DB11D80930F01E6
:1004500090931001A0931101B093120180910F01AC
:1004600090911001A0911101B09112014817590704
:080470006A077B0744F70895B9
:10047800CF92DF92EF926B01E82E80E006C0E82F62
:10048800F0E0E050FF4F90838F5F4E2D9601280FCC
:10049800311D411DF901949147FD90819111EFCFD4
:1004A800E82FF0E0E050FF4F1082EF90DF90CF9000
:0204B8000895A5
:1004BA00CF93C82F60E082E40E945D0160E282E48B
:1004CA000E945D016C2F606282E40E945D016C2FC4
:0C04DA006F7D82E40E945D01CF910895C7
:1004E6000F931F93CF938C01862F0E94F100C0E0DB
:1004F60003C00E942901CF5FF801EC0FF11D808136
:0C0506008111F7CFCF911F910F91089544
:10051200A29FB001B39FC001A39F700D811D112442
:0E052200911DB29F700D811D1124911D089531
:1005300080E387B982E08093B800E9EBF0E0808146
:0605400082608083089533
:100546000E948902A59F900DB49F900DA49F800DD7
:06055600911D112408951F
:04055C000C940000FB
:00000001FF
