:100000000C9457000C94DD070C94DD070C94DD076D
:100010000C94DD070C94DD070C94DD070C94DD07D0
:100020000C94DD070C94DD070C94DD070C94090398
:100030000C94DD070C94DD070C94DD070C94DD07B0
:100040000C94DD070C94DD070C94DD070C94DD07A0
:100050000C94DD070C94DD070C94DD070C94DD0790
:100060000C94DD070C94DD071E07300720072E07D0
:100070002207240726072E0728072A072C07030232
:10008000090221020D0211021502210219021D02AC
:100090000100011B80011B012B000FBE012B01374A
:1000A0008001370139000FCE0139013F8000112452
:1000B0001FBECFEFD8E0DEBFCDBFE0E9F0E040E00B
:1000C00017C0B591A59135912591059107FD0CC0FB
:1000D00095918591EF01F92FE82F05900D92A217C8
:1000E000B307D9F7FE0104C01D92A217B307E1F7C9
:1000F000ED3AF40731F70E9436040C947F00F8942F
:02010000FFCF2F
:10010200444F4D005345470054455200515541005C
:1001120051554900534558005341420052454355F9
:100122005045524143414F002020202020202020D2
:1001320020202020202020200031003200330050D7
:1001420000340035003600410037003800390044E1
:1001520000520030005300450053454E4841204DA7
:1001620045535452453A0053454E48412041544963
:10017200564143414F3A0020202020002020414395
:100182004553534F204E454741444F20004143457C
:1001920053534F204E454741444F20202000457382
:1001A200636F6C68612073656E68613A00646967A9
:1001B2006974652073656E68613A0031205041525E
:1001C200414D4554524F3A003220504152414D4523
:0F01D20054524F3A00494E434F525245544F003A
:1001E10001020304040302010000000003050906E3
:1001F200EF92FF920F931F93CF93DF9300D000D023
:10020200CDB7DEB7082F10923A01882331F06BE5A3
:1002120071E080E00E94F30605C069E671E080E0CB
:100222000E94F30660E08AE091E00E947C0785E488
:100232000E944B050E94C90480913E01811106C0B3
:10024200109100011D3011F01F3071F410923E0127
:1002520069E771E080E00E94F30665E48AE091E0DC
:100262000E947C0780E095C0812F0E94320788237C
:10027200C9F080913A018430A8F4E82EF12C812F44
:100282000E941407E1E0F0E0EC0FFD1FEE0DFF1DF0
:1002920080838AE20E94830580913A018F5F809376
:1002A2003A01C8CF002311F180913A018430F1F470
:1002B20013C0E1E0F0E0EC0FFD1FE80FF91F308101
:1002C200FC01E55EFE4F2081321721F010923901C8
:1002D20081E05FC0019602C080E090E08430910529
:1002E20044F382E08093390181E053C0103109F078
:1002F200A1CF80913A01843009F09CCF69E771E087
:1003020080E00E94F30665E48AE091E00E947C07A7
:1003120020E030E03AC0E1E0F0E0EC0FFD1FE80F32
:10032200F91F5081F901EE0FFF1FEE0FFF1FE55E6F
:10033200FE4FE80FF91F40815417B9F010923901AE
:100342002330310501F56EE771E080E00E94F3068B
:1003520060E08AE091E00E947C0764EF71E080E057
:1003620090E00E94A50681E014C08330910521F43B
:1003720081E0809339010DC0019602C080E090E0D7
:100382008430910544F22F5F3F4F24303105B4F39E
:1003920081E00F900F900F900F90DF91CF911F91FE
:0803A2000F91FF90EF90089508
:1003AA006DEB71E080E00E94F30660E08AE091E084
:1003BA000E947C0792C080910001883009F062C0D7
:1003CA006AEC71E080E00E94F30660E08AE091E066
:1003DA000E947C0780E40E944B0581E40E94830509
:1003EA004CC0E09100018E2F90E0FC013297E93079
:1003FA00F10510F5E15CFF4F0C94D70782E30E94E8
:10040A0083050E947702089583E30E948305089575
:10041A0084E30E948305089585E30E948305089575
:10042A0086E30E948305089587E30E948305089561
:10043A0088E30E948305089580E090E00E94920775
:10044A0067ED71E080E00E94F30660E08AE091E0E7
:10045A000E947C0764E670E080E090E00E94A506B6
:10046A006AEC71E080E00E94F30660E08AE091E0C5
:10047A000E947C0781E40E944B050E944F0781116C
:10048A00B0CF2BC08C3049F56AEC71E080E00E9455
:10049A00F30660E08AE091E00E947C0780E40E9413
:1004AA004B0584E40E94830514C0809100018530C5
:1004BA0041F0863051F0833061F483E30E94830572
:1004CA00089584E30E948305089585E30E948305C5
:1004DA0008950E944F078111E8CF0E944F078111AA
:0404EA006ACF089538
:1004EE00CF92DF92FF920F931F93CF93DF9300D0A3
:1004FE0000D0CDB7DEB70E94CD0760EA71E080E094
:10050E000E94F30660E08AE091E00E947C076AC0D8
:10051E0010910001812F0E943207882309F462C0D6
:10052E00812F0E941407182F843008F05BC00E94A0
:10053E00CD076FEA71E080E00E94F30660E08AE08A
:10054E0091E00E947C0785E40E944B0500E041C0CB
:10055E00F09000018F2D0E943207882381F0C02E6B
:10056E00D12C8F2D0E941407E1E0F0E0EC0FFD1F5F
:10057E00EC0DFD1D80830F5F8AE20E94830504301F
:10058E0041F522C0809100018031F1F414C0E12FB9
:10059E00F0E0A1E0B0E0AC0FBD1FA80FB91F2C9189
:1005AE00EE0FFF1FEE0FFF1FE55EFE4FE80FF91F68
:1005BE002083019602C080E090E0843091053CF3E8
:1005CE000E94CD0781E012C00E944F078111DACF41
:1005DE000DC00E944F07882349F0043008F4B8CFAD
:1005EE0080E004C00E944F07811192CF0F900F90B0
:1005FE000F900F90DF91CF911F910F91FF90DF9091
:04060E00CF900895EC
:100612001F920F920FB60F9211242F933F934F9375
:100622005F938F939F93EF93FF93109285001092A5
:1006320084008091310190913201019690933201B0
:100642008093310180912F01909130010196909316
:10065200300180932F0180913B018230E9F4409177
:100662003101509132012091370130913801241724
:10067200350790F481E080933E0110923B018BB1EB
:10068200877F8BB91092320110923101EFE6F0E0D0
:1006920080818D7F80833DC090913D019923E1F05F
:1006A2004091310150913201209135013091360152
:1006B2002417350788F410923D018BB18B7F8BB9DB
:1006C2008BB18BB91092320110923101EFE6F0E05A
:1006D20080818D7F80831DC08130D9F480913C015F
:1006E200811117C020913101309132018091330183
:1006F200909134018217930760F481E080933C016A
:100702001092320110923101EFE6F0E080818D7F8C
:100712008083FF91EF919F918F915F914F913F91D4
:0C0722002F910F900FBE0F901F901895A4
:10072E00809100018430E1F481E00E94F900882379
:10073E0009F445C080913901823009F040C08BB177
:10074E0088608BB982E080933B0110923E0110923B
:10075E0032011092310180936F000E94CD070895EF
:10076E00883069F580E00E94F900882341F180917C
:10077E003901882391F08BB180618BB981E0809330
:10078E003B0110923C01109232011092310182E035
:10079E0080936F000E94CD0708956FE871E080E0AE
:1007AE000E94F30660E08AE091E00E947C0768EE0A
:1007BE0073E080E090E00E94A5060E94CD070895A8
:1007CE006FE070E080E090E00E94A50683E00E945A
:1007DE00660765E070E080E090E00E94A50683E089
:1007EE000E94660764E670E080E090E00E94CF060B
:1007FE0083E00E94660768E270E080E090E00E946D
:10080E00CF0682E00E94660768E270E080E090E02A
:10081E000E94CF0688E20E944B0668E270E080E0FC
:10082E0090E00E94CF0681E00E944B0662E070E0ED
:10083E0080E090E00E94A50686E00E944B0668E2EA
:10084E0070E080E090E00E94CF068CE00E944B06A4
:0E085E0068E270E080E090E00E94CF0608950E
:10086C000E94B7078FE084B980EF85B988B18860A2
:10087C0088B96FEF80E40E94B705811102C08FEF39
:10088C0085B90E94E7038EEF8AB910928000E1E8E7
:10089C00F0E080818460808380818D7F8083808183
:1008AC008E7F8083109285001092840089E09DE3F6
:1008BC00909389008093880078941092C50083E30C
:1008CC008093C40086E08093C20088E08093C100CE
:1008DC000E94C90480913B01813039F018F08230BC
:1008EC0039F0F6CF0E949703F3CF0E947806F0CF31
:0608FC000E94D501EDCFC2
:100902006EE171E080E00E94F30660E08AE091E02F
:100912000E947C07A0E0B0E021C0CD01880F991FA2
:10092200880F991F9C01260F371F032E000C440BC2
:100932002F513E4F4F4FF901249147FD2081855E93
:100942009E4FFC01E60FF71F20836F5F7F4F02C0AF
:1009520060E070E06430710504F31196A430B105D3
:10096200BCF31092340110923301109236011092AE
:10097200350183E690E0909338018093370164E675
:1009820070E080E090E00E94A5060E94CD070895E5
:100992000E941B06809300018D30E1F41092300119
:1009A20010922F0182E080936F000BC080912F0183
:1009B200909130010A9728F00E94810410923B0125
:1009C20004C00E941B068111F1CF109230011092D7
:1009D2002F0108958F30A9F40E941B068111FCCFCC
:1009E2008BB184608BB90E941B068F30E1F70E94A5
:1009F2001B068111FCCF8BB18B7F8BB910923B010F
:100A020008950E941B06882321F080910001811124
:040A1200F8CF08957C
:100A160033993DC081E40E94EA054091BB00809174
:100A26000801482379F108958091040190E0022E8F
:100A360002C0959587950A94E2F780FF20C0F901D8
:100A4600EB5FFE4F80818423D1F08BB184608BB93C
:100A560081E080933D015BB1B9016B5F7F4F81E01F
:100A660090E002C0880F991F6A95E2F7852B8BB933
:100A7600109232011092310182E080936F002F5F55
:100A86003F4F02C020E030E0233031056CF208957C
:100A9600CF93DF93C82FC06860E082E40E94B70559
:100AA60060E082E40E94B70560E282E40E94B70536
:100AB600DC2FD295DF706D2F606282E40E94B7054D
:100AC6006D2F82E40E94B70560E082E40E94B705BC
:100AD60060E282E40E94B705CF70C0626C2F82E4A8
:100AE6000E94B7056C2F6F7D82E40E94B7056BE20A
:100AF60070E080E090E00E94CF06DF91CF910895EC
:100B0600CF93DF93C82F60E882E40E94B70560EABE
:100B160082E40E94B705DC2FD295DF706D2F606AE4
:100B260082E40E94B7056D2F606882E40E94B705D3
:100B360060E882E40E94B70560EA82E40E94B70595
:100B4600CF70C06A6C2F82E40E94B7056C2F6F7D50
:100B560082E40E94B7056BE270E080E090E00E94BC
:080B6600CF06DF91CF91089545
:100B6E0094EA9093BC009091BC009923E4F7909185
:100B7E00B900987F983009F58093BB0084E8809384
:100B8E00BC008091BC008823E4F78091B900887F77
:100B9E008831A9F46093BB0084E88093BC008091F7
:100BAE00BC008823E4F78091B900887F883249F42D
:100BBE0084E98093BC0081E0089580E0089580E090
:060BCE00089580E0089587
:100BD40094EA9093BC009091BC009923E4F790911F
:100BE400B900987F9830F9F48093BB0084E880932F
:100BF400BC008091BC008823E4F78091B900887F11
:100C0400803499F484E88093BC008091BC008823EC
:100C1400E4F78091B900887F883549F484E98093AA
:100C2400BC0081E0089580E0089580E0089580E0AC
:020C3400089521
:100C360060E070E080E028C021E030E0062E02C0CF
:100C4600220F331F0A94E2F72095206F25B944E05E
:100C560050E013C023B130E0042E02C0359527952D
:100C66000A94E2F720FD07C0862F880F880F480FE9
:100C76008DEF840F05C04F5F5F4F4830510554F329
:100C8600811105C06F5F7F4F64307105ACF2089526
:100C9600CF93DF93C82F60E082E40E94B70560E23D
:100CA60082E40E94B705DC2FD295DF706D2F60625B
:100CB60082E40E94B7056D2F82E40E94B70560E0CA
:100CC60082E40E94B70560E282E40E94B705CF7015
:100CD600C0626C2F82E40E94B7056C2F6F7D82E4A0
:0A0CE6000E94B705DF91CF91089539
:100CF00080913C01882341F1809100018C3011F5F5
:100D000080E00E94F90080913901882341F010921F
:100D10003B018BB18F7E8BB90E94CD0708956FE8A0
:100D200071E080E00E94F30660E08AE091E00E94BA
:100D30007C0768EE73E080E090E00E94A5060E94C8
:0A0D4000CD0708950E940B050895E9
:100D4A009B01AC0110922B0110922C0110922D01E3
:100D5A0010922E01A8EEB3E00E94C207AB01BC01BB
:100D6A000BC00196A11DB11D80932B0190932C01FC
:100D7A00A0932D01B0932E0180912B0190912C010B
:100D8A00A0912D01B0912E01481759076A077B07D8
:040D9A0044F708957D
:100D9E00AB01BC0110922B0110922C0110922D016F
:100DAE0010922E010BC00196A11DB11D80932B0137
:100DBE0090932C01A0932D01B0932E0180912B01C5
:100DCE0090912C01A0912D01B0912E014817590739
:080DDE006A077B0744F7089542
:100DE600CF92DF92EF926B01E82E80E006C0E82FEB
:100DF600F0E0E65FFE4F90838F5F4E2D9601280F41
:100E0600311D411DF901949147FD90819111EFCF5C
:100E1600E82FF0E0E65FFE4F1082EF90DF90CF9074
:020E260008952D
:100E280090E0FC013197EB30F105A0F4EC5CFF4F4A
:100E38000C94D70781E0089583E0089584E008952D
:100E480085E0089586E0089587E0089588E008958C
:0C0E580089E0089580E0089582E008958C
:100E6400843069F0883069F08C3069F0803169F041
:100E74008F3069F08D3069F081110DC0089580E0E4
:100E8400089580E0089580E0089580E0089580E06A
:0A0E9400089580E0089581E00895BC
:100E9E000E94C904809100018D3031F08F3021F015
:100EAE0090913E01992339F010923B010E94CD079B
:0E0EBE001BB880E00895882359F381E0089561
:100ECC00CF93C82F60E082E40E94B70560E282E411
:100EDC000E94B7056C2F606282E40E94B7056C2FEC
:0C0EEC006F7D82E40E94B705CF9108954D
:100EF8000F931F93CF938C01862F0E944B05C0E060
:100F080003C00E948305CF5FF801EC0FF11D8081BB
:0C0F18008111F7CFCF911F910F91089528
:100F2400CF93C82F6AE271E080E00E94F306C111FA
:100F340006C060E08AE091E00E947C0705C060E49E
:0C0F44008AE091E00E947C07CF910895A4
:100F5000A29FB001B39FC001A39F700D811D1124FA
:0E0F6000911DB29F700D811D1124911D0895E9
:100F6E0080E387B982E08093B800E9EBF0E08081FE
:060F7E00826080830895EB
:100F84000E94A807A59F900DB49F900DA49F800D6B
:060F9400911D11240895D7
:100F9A0081E00E944B0662E070E080E090E00E94EF
:040FAA00A5060895FB
:0C0FAE00EE0FFF1F0590F491E02D099458
:040FBA000C94000093
:100FBE0001020304040302010000000003050906F8
:020FCE006300BE
:00000001FF
